:100000000C9446000C9465000C9465000C946500FB
:100010000C9465000C9465000C9465000C946500CC
:100020000C9465000C9465000C9465000C946500BC
:100030000C9465000C94A3000C9465000C9465006E
:100040000C9465000C9465000C9465000C9465009C
:100050000C9465000C9465000C9465000C9465008C
:100060000C9465000C9465000C9465000C9465007C
:100070000C9465000C9465000C9465000C9465006C
:100080000C9465000C9465000C94650011241FBE4F
:10009000CFEFD0E4DEBFCDBF11E0A0E0B1E0ECE7F0
:1000A000F8E000E00BBF02C007900D92A231B1074B
:1000B000D9F721E0A2E1B1E001C01D92AD31B20754
:1000C000E1F70E9496020C943C040C940000CF933C
:1000D000C82F8A3019F48DE00E9467008091C0001B
:1000E00085FFFCCFC093C60080E090E0CF910895DB
:1000F0008BE0809381008DE790E09093890080935E
:10010000880082E080936F00109285001092840036
:100110008091000190910101A0910201B091030131
:100120008093120190931301A0931401B0931501D1
:100130008FB780688FBF089510928100089581E085
:100140008093160108951F920F920FB60F921124FB
:100150000BB60F922F933F934F935F936F937F93C1
:100160008F939F93AF93BF93EF93FF93809112016F
:1001700090911301A0911401B09115010197A1096B
:10018000B1098093120190931301A0931401B093CD
:100190001501892B8A2B8B2B91F40E949F00809153
:1001A000000190910101A0910201B091030180939F
:1001B000120190931301A0931401B0931501FF91C4
:1001C000EF91BF91AF919F918F917F916F915F91CF
:1001D0004F913F912F910F900BBE0F900FBE0F903C
:1001E0001F901895609300017093010180930201A4
:1001F0009093030160931201709313018093140193
:10020000909315010895CF92DF92EF92FF926B01C8
:100210007C016091170170911801809119019091F2
:100220001A01A70196010E94A802882309F458C068
:1002300020E030E0A901C701B6010E94A8028111A7
:1002400006C0E1E9F0E080818870808305C0E1E9C3
:10025000F0E080818360808328E539E344E75FE351
:10026000C701B6010E94A80288233CF48FEF9FEFDC
:10027000909399008093980027C020E034E244EFE7
:1002800056E4C701B6010E94CA0318162CF4109256
:1002900099001092980018C020E030E040E053E44C
:1002A000C701B6010E94CF039B01AC0160E070E57D
:1002B00083E499E40E94AD020E941F03615071091A
:1002C000709399006093980010929500109294009A
:1002D000C0921701D0921801E0921901F0921A0110
:1002E000FF90EF90DF90CF90089580E4809390008E
:1002F0008BE08093910060E070E0CB010E940301ED
:1003000008951092900010929100089580911B0121
:1003100090911C018330910509F443C028F40097A3
:1003200059F0019781F0C7C08430910509F467C086
:10033000059709F492C0BFC081E090E090931C0142
:1003400080931B01BCC000990BC0019B09C0029B9C
:1003500007C083E090E090931C0180931B01AFC025
:10036000009B0BC0019909C0029B07C084E090E08C
:1003700090931C0180931B01A2C0009B0BC0019BAA
:1003800009C0029907C085E090E090931C0180931A
:100390001B0195C081E090E090931C0180931B01AC
:1003A0008EC000990BC0019B09C0029B07C083E06F
:1003B00090E090931C0180931B0181C0009B0BC0B7
:1003C000019909C0029B07C084E090E090931C0152
:1003D00080931B0174C0009B0BC0019B09C0029954
:1003E00007C085E090E090931C0180931B0167C0DB
:1003F00081E090E090931C0180931B0160C0009904
:100400000BC0019B09C0029B07C083E090E0909362
:100410001C0180931B0153C0009B0BC0019909C0B4
:10042000029B07C084E090E090931C0180931B0125
:1004300046C0009B0BC0019B09C0029907C085E024
:1004400090E090931C0180931B0139C081E090E003
:1004500090931C0180931B0132C000990BC0019B3B
:1004600009C0029B07C083E090E090931C01809339
:100470001B0125C0009B0BC0019909C0029B07C04E
:1004800084E090E090931C0180931B0118C0009BB6
:100490000BC0019B09C0029907C085E090E09093D2
:1004A0001C0180931B010BC081E090E090931C0124
:1004B00080931B0104C010921C0110921B018091BB
:1004C0001B0190911C018330910591F028F4009755
:1004D00049F0019751F027C08430910591F00597BC
:1004E000C9F021C00E94810108950E9481010895F0
:1004F00064EA70ED82E893E40E9403010E947501B2
:1005000008956BE774ED82E993E40E9403010E9471
:100510007501089564EA70ED84EA93E40E94030192
:100520000E94750108950E94810108958FEF84B99A
:1005300015B811B882B910921C0110921B0164EA1F
:1005400070ED82E893E40E9403010E947501F7CFE9
:100550000E94550308F481E008950E94C1020C94A2
:1005600090030E94890358F00E94820340F029F40E
:100570005F3F29F00C94790351110C94C4030C943F
:100580007F030E94A10368F39923B1F3552391F3EC
:10059000951B550BBB27AA2762177307840738F0F2
:1005A0009F5F5F4F220F331F441FAA1FA9F335D04F
:1005B0000E2E3AF0E0E832D091505040E695001C03
:1005C000CAF72BD0FE2F29D0660F771F881FBB1FBD
:1005D000261737074807AB07B0E809F0BB0B802D9B
:1005E000BF01FF2793585F4F3AF09E3F510578F0C7
:1005F0000C9479030C94C4035F3FE4F3983ED4F366
:10060000869577956795B795F7959F5FC9F7880F9A
:10061000911D9695879597F90895E1E0660F771FEC
:10062000881FBB1F621773078407BA0720F0621B7D
:10063000730B840BBA0BEE1F88F7E09508950E94A8
:1006400026036894B1110C94C40308950E94A90371
:1006500088F09F5798F0B92F9927B751B0F0E1F083
:10066000660F771F881F991F1AF0BA95C9F714C033
:10067000B13091F00E94C303B1E008950C94C3031C
:10068000672F782F8827B85F39F0B93FCCF386956C
:1006900077956795B395D9F73EF4909580957095C9
:1006A00061957F4F8F4F9F4F0895990F0008550F09
:1006B000AA0BE0E8FEEF16161706E807F907C0F0E8
:1006C00012161306E407F50798F0621B730B840BF0
:1006D000950B39F40A2661F0232B242B252B21F4CA
:1006E00008950A2609F4A140A6958FEF811D811D6A
:1006F000089597F99F6780E870E060E008959FEFA4
:1007000080EC089500240A941616170618060906A8
:10071000089500240A941216130614060506089577
:10072000092E0394000C11F4882352F0BB0F40F4FF
:10073000BF2B11F460FF04C06F5F7F4F8F4F9F4F3F
:10074000089557FD9058440F551F59F05F3F71F0C1
:100750004795880F97FB991F61F09F3F79F0879528
:100760000895121613061406551FF2CF4695F1DFB1
:1007700008C0161617061806991FF1CF8695710541
:10078000610508940895E894BB2766277727CB0175
:1007900097F908950E94550308F48FEF08950E9479
:1007A000E2030C9490030E94820338F00E948903B4
:1007B00020F0952311F00C9479030C947F031124FD
:1007C0000C94C4030E94A10370F3959FC1F3950F8D
:1007D00050E0551F629FF001729FBB27F00DB11DC5
:1007E000639FAA27F00DB11DAA1F649F6627B00D55
:1007F000A11D661F829F2227B00DA11D621F739F3E
:10080000B00DA11D621F839FA00D611D221F749F4B
:100810003327A00D611D231F849F600D211D822F92
:10082000762F6A2F11249F5750409AF0F1F08823B9
:100830004AF0EE0FFF1FBB1F661F771F881F9150E6
:100840005040A9F79E3F510580F00C9479030C9419
:10085000C4035F3FE4F3983ED4F38695779567959C
:10086000B795F795E7959F5FC1F7FE2B880F911D10
:0C0870009695879597F90895F894FFCFAE
:10087C000100000000000002000000006700000002
:02088C0000006A
:00000001FF
