:100000000C9446000C9465000C9465000C946500FB
:100010000C9465000C9465000C9465000C946500CC
:100020000C9465000C9465000C9465000C946500BC
:100030000C9465000C94F1010C9465000C9465001F
:100040000C9465000C9465000C9465000C9465009C
:100050000C9465000C9465000C9465000C9465008C
:100060000C9465000C9465000C9465000C9465007C
:100070000C9465000C9465000C9465000C9465006C
:100080000C9465000C9465000C94650011241FBE4F
:10009000CFEFD0E4DEBFCDBF11E0A0E0B1E0E8E6F5
:1000A000F8E000E00BBF02C007900D92A03CB10742
:1000B000D9F721E0A0ECB1E001C01D92A33EB20748
:1000C000E1F70E9451020C9432040C940000CF938B
:1000D000C82F8A3019F48DE00E9467008091C0001B
:1000E00085FFFCCFC093C60080E090E0CF910895DB
:1000F0008130910541F08230910559F0009751F41B
:10010000109200010895009905C081E080930001DC
:10011000089580B10895CF92DF92EF92FF926B0124
:100120007C016091C5017091C6018091C7019091D9
:10013000C801A70196010E949E02882309F458C0B5
:1001400020E030E0A901C701B6010E949E028111A2
:1001500006C0E1E9F0E080818870808305C0E1E9B4
:10016000F0E080818360808328E539E344E75FE342
:10017000C701B6010E949E0288233CF48FEF9FEFD7
:10018000909399008093980027C020E034E244EFD8
:1001900056E4C701B6010E94C00318162CF4109251
:1001A00099001092980018C020E030E040E053E43D
:1001B000C701B6010E94C5039B01AC0160E074E277
:1001C00084EF9AE40E94A3020E9415036150710912
:1001D000709399006093980010929500109294008B
:1001E000C092C501D092C601E092C701F092C80149
:1001F000FF90EF90DF90CF9008958130910561F0EE
:1002000082309105A1F0892BA1F51092CA011092BC
:10021000C90181E090E02FC000992DC0109200012B
:100220001092CA011092C90182E090E024C020918E
:10023000CA012C3628F01092000181E090E01BC02A
:100240003091C901632F70E0E22FF0E0EE0FFF1F45
:10025000E95EFE4F408151816417750720F43F5FCE
:100260003093C90108C01092C9012F5F2093CA01C1
:1002700002C080E090E08130910531F0823091053C
:1002800049F00097B9F4089560E070E0CB010E9456
:100290008B000895E091CA01F0E0EE0FFF1FEE0F12
:1002A000FF1FE15BFE4F60817181828193810E941B
:1002B0008B00089560E070E0CB010E948B000895F0
:1002C00080E4809390008BE08093910060E070E088
:1002D000CB010E948B000895109290001092910023
:1002E00008958BE0809381008DE790E090938900E2
:1002F0008093880082E080936F00109285001092B6
:1003000084008091050190910601A0910701B091B0
:1003100008018093C0019093C101A093C201B093E2
:10032000C3018FB780688FBF089510928100089530
:10033000EF92FF921F93CF93DF9310E049C0C12F3C
:10034000D0E0FE01EE0FFF1FEF5FFE4FE080F18077
:10035000D70116964D915D916D917C9119971296EA
:100360008D919D910D90BC91A02D481759076A075A
:100370007B07B8F0D7011A96ED91FC911B978D91F0
:100380009C910995F70191838083FE01EE0FFF1F79
:10039000EF5FFE4F0190F081E02D168217821086EC
:1003A0001186CC0FDD1FCF5FDE4FE881F98182819E
:1003B0009381A481B5814681578160857185840FC1
:1003C000951FA61FB71F86839783A087B1871F5FDE
:1003D000123008F4B4CFDF91CF911F91FF90EF90CE
:1003E00008951F920F920FB60F9211240BB60F9221
:1003F0002F933F934F935F936F937F938F939F932D
:10040000AF93BF93EF93FF938091C0019091C1018F
:10041000A091C201B091C3010197A109B1098093D4
:10042000C0019093C101A093C201B093C301892B75
:100430008A2B8B2B91F40E94980180910501909159
:100440000601A0910701B09108018093C00190932B
:10045000C101A093C201B093C301FF91EF91BF917D
:10046000AF919F918F917F916F915F914F913F914C
:100470002F910F900BBE0F900FBE0F901F901895ED
:100480006093050170930601809307019093080122
:100490006093C0017093C1018093C2019093C30126
:1004A00008958FEF84B915B811B882B9E1E0F1E091
:1004B000A081B1811D921C92A081B1814BE450E0DA
:1004C00060E070E012964D935D936D937C93159769
:1004D00016961D921D921D921C9219978DEF90E019
:1004E0001B969C938E931A97A281B3811D921C92A6
:1004F000A281B38112964D935D936D937C93159772
:100500000280F381E02D168217821086118688E71B
:1005100090E09387828781E08093000164E670E039
:1005200080E090E00E9440020E94710160E070E073
:10053000CB010E948B000E946001FFCF0E944B0301
:1005400008F481E008950E94B7020C9486030E948B
:100550007F0358F00E94780340F029F45F3F29F0B0
:100560000C946F0351110C94BA030C9475030E9400
:10057000970368F39923B1F3552391F3951B550B1A
:10058000BB27AA2762177307840738F09F5F5F4F66
:10059000220F331F441FAA1FA9F335D00E2E3AF0A5
:1005A000E0E832D091505040E695001CCAF72BD0BD
:1005B000FE2F29D0660F771F881FBB1F261737070E
:1005C0004807AB07B0E809F0BB0B802DBF01FF2740
:1005D00093585F4F3AF09E3F510578F00C946F03AB
:1005E0000C94BA035F3FE4F3983ED4F38695779575
:1005F0006795B795F7959F5FC9F7880F911D9695F9
:10060000879597F90895E1E0660F771F881FBB1F54
:10061000621773078407BA0720F0621B730B840B01
:10062000BA0BEE1F88F7E09508950E941C036894AA
:10063000B1110C94BA0308950E949F0388F09F574C
:1006400098F0B92F9927B751B0F0E1F0660F771FF6
:10065000881F991F1AF0BA95C9F714C0B13091F0EC
:100660000E94B903B1E008950C94B903672F782F65
:100670008827B85F39F0B93FCCF3869577956795B1
:10068000B395D9F73EF490958095709561957F4F1D
:100690008F4F9F4F0895990F0008550FAA0BE0E860
:1006A000FEEF16161706E807F907C0F01216130634
:1006B000E407F50798F0621B730B840B950B39F474
:1006C0000A2661F0232B242B252B21F408950A26DA
:1006D00009F4A140A6958FEF811D811D089597F91A
:1006E0009F6780E870E060E008959FEF80EC0895D8
:1006F00000240A9416161706180609060895002401
:100700000A9412161306140605060895092E03947A
:10071000000C11F4882352F0BB0F40F4BF2B11F4EE
:1007200060FF04C06F5F7F4F8F4F9F4F089557FD4D
:100730009058440F551F59F05F3F71F04795880F4F
:1007400097FB991F61F09F3F79F0879508951216E6
:1007500013061406551FF2CF4695F1DF08C0161692
:1007600017061806991FF1CF869571056105089443
:100770000895E894BB2766277727CB0197F908955A
:100780000E944B0308F48FEF08950E94D8030C9445
:1007900086030E94780338F00E947F0320F095239F
:1007A00011F00C946F030C94750311240C94BA038C
:1007B0000E94970370F3959FC1F3950F50E0551F6A
:1007C000629FF001729FBB27F00DB11D639FAA27A6
:1007D000F00DB11DAA1F649F6627B00DA11D661FF5
:1007E000829F2227B00DA11D621F739FB00DA11D16
:1007F000621F839FA00D611D221F749F3327A00DD0
:10080000611D231F849F600D211D822F762F6A2F6B
:1008100011249F5750409AF0F1F088234AF0EE0FD0
:10082000FF1FBB1F661F771F881F91505040A9F7FD
:100830009E3F510580F00C946F030C94BA035F3F08
:10084000E4F3983ED4F3869577956795B795F79539
:10085000E7959F5FC1F7FE2B880F911D96958795B1
:0808600097F90895F894FFCF09
:1008680001D701CB010100000000000002000000D8
:1008780000670000000000040004000400040004F5
:10088800000400040004000200020002000200024A
:100898000002000200020002000200020002000240
:1008A800000200020002000400040004000400A486
:1008B800D0A4437BD49243A4D0824300000000A478
:1008C800D0A4437BD49243A4D0824300000000A468
:1008D800D0824300000000A4D0824300000000A49E
:1008E800D0824300000000A4D08243000000007BB7
:1008F800D49243000000007BD49243000000007BA8
:10090800D49243000000007BD49243A4D0A4437B3C
:10091800D49243A4D08243000000004B00020000A0
:00000001FF
