:100000000C9446000C9465000C9465000C946500FB
:100010000C9465000C9465000C9465000C946500CC
:100020000C9465000C9465000C9465000C946500BC
:100030000C9465000C94C9010C9465000C94650047
:100040000C9465000C9465000C9465000C9465009C
:100050000C9465000C9465000C9465000C9465008C
:100060000C9465000C9465000C9465000C9465007C
:100070000C9465000C9465000C9465000C9465006C
:100080000C9465000C9465000C94650011241FBE4F
:10009000CFEFD0E4DEBFCDBF11E0A0E0B1E0E8E2F9
:1000A000F8E000E00BBF02C007900D92A43CB1073E
:1000B000D9F721E0A4ECB1E001C01D92A93EB2073E
:1000C000E1F70E9429020C9412040C940000CF93D3
:1000D000C82F8A3019F48DE00E9467008091C0001B
:1000E00085FFFCCFC093C60080E090E0CF910895DB
:1000F0008130910541F08230910559F0009761F40B
:10010000109200010895009907C081E080930001DA
:1001100008950099109200010895CF92DF92EF9216
:10012000FF926B017C016091C9017091CA018091BD
:10013000CB019091CC01A70196010E947E028823F9
:1001400009F458C020E030E0A901C701B6010E94BF
:100150007E02811106C0E1E9F0E080818870808331
:1001600005C0E1E9F0E080818360808328E539E320
:1001700044E75FE3C701B6010E947E0288233CF496
:100180008FEF9FEF909399008093980027C020E015
:1001900034E244EF56E4C701B6010E94A0031816EA
:1001A0002CF4109299001092980018C020E030E0D2
:1001B00040E053E4C701B6010E94A5039B01AC01D6
:1001C00060E074E284EF9AE40E9483020E94F502E8
:1001D0006150710970939900609398001092950096
:1001E00010929400C092C901D092CA01E092CB0152
:1001F000F092CC01FF90EF90DF90CF900895809126
:10020000E7019091E8018130910579F018F00297AB
:1002100079F158C01092CE011092CD0181E090E0AA
:100220009093E8018093E70151C0009912C080913A
:10023000000181110EC081E0809300011092CE0177
:100240001092CD0182E090E09093E8018093E70165
:100250003DC081E090E09093E8018093E701009B2E
:1002600035C080910001882389F1109200012EC0D1
:100270008091CE018C3138F081E090E09093E801DC
:100280008093E70123C09091CD01492F50E0E82FE2
:10029000F0E0EE0FFF1FE95EFE4F20813181421733
:1002A000530720F49F5F9093CD0105C01092CD01BC
:1002B0008F5F8093CE0182E090E09093E80180937D
:1002C000E70104C01092E8011092E7018091E70174
:1002D0009091E8018130910521F0F0F0029739F01A
:1002E00016C060E070E0CB010E948D000895E0919F
:1002F000CE01F0E0EE0FFF1FEE0FFF1FE15BFE4FA0
:1003000060817181828193810E948D00089560E0F7
:1003100070E0CB010E948D00089580E480939000EE
:100320008BE08093910060E070E0CB010E948D0033
:100330000895109290001092910008958BE08093A0
:1003400081008DE790E0909389008093880082E09F
:1003500080936F00109285001092840080910501B7
:1003600090910601A0910701B09108018093C4010A
:100370009093C501A093C601B093C7018FB7806861
:100380008FBF089510928100089581E08093C80185
:1003900008951F920F920FB60F9211240BB60F9271
:1003A0002F933F934F935F936F937F938F939F937D
:1003B000AF93BF93EF93FF938091C4019091C501D8
:1003C000A091C601B091C7010197A109B10980931D
:1003D000C4019093C501A093C601B093C701892BB6
:1003E0008A2B8B2B91F40E94C5018091050190917D
:1003F0000601A0910701B09108018093C401909378
:10040000C501A093C601B093C701FF91EF91BF91C1
:10041000AF919F918F917F916F915F914F913F919C
:100420002F910F900BBE0F900FBE0F901F9018953D
:100430006093050170930601809307019093080172
:100440006093C4017093C5018093C6019093C70166
:1004500008958FEF84B915B811B882B9E1E0F1E0E1
:10046000A081B1811D921C92A081B1814BE450E02A
:1004700060E070E012964D935D936D937C931597B9
:1004800016961D921D921D921C9219978FEF90E067
:100490001B969C938E931A97A281B3811D921C92F6
:1004A000A281B38112964D935D936D937C931597C2
:1004B0000280F381E02D168217821086118688E76C
:1004C00090E09387828781E0809300016BE470E085
:1004D00080E090E00E9418020E949E0160E070E0BF
:1004E000CB010E948D000E948D010E94FF0080912F
:1004F000C8018823E1F31092C801F7CF0E942B03B3
:1005000008F481E008950E9497020C9466030E940B
:100510005F0358F00E94580340F029F45F3F29F030
:100520000C944F0351110C949A030C9455030E94A0
:10053000770368F39923B1F3552391F3951B550B7A
:10054000BB27AA2762177307840738F09F5F5F4FA6
:10055000220F331F441FAA1FA9F335D00E2E3AF0E5
:10056000E0E832D091505040E695001CCAF72BD0FD
:10057000FE2F29D0660F771F881FBB1F261737074E
:100580004807AB07B0E809F0BB0B802DBF01FF2780
:1005900093585F4F3AF09E3F510578F00C944F030B
:1005A0000C949A035F3FE4F3983ED4F386957795D5
:1005B0006795B795F7959F5FC9F7880F911D969539
:1005C000879597F90895E1E0660F771F881FBB1F95
:1005D000621773078407BA0720F0621B730B840B42
:1005E000BA0BEE1F88F7E09508950E94FC0268940C
:1005F000B1110C949A0308950E947F0388F09F57CD
:1006000098F0B92F9927B751B0F0E1F0660F771F36
:10061000881F991F1AF0BA95C9F714C0B13091F02C
:100620000E949903B1E008950C949903672F782FE5
:100630008827B85F39F0B93FCCF3869577956795F1
:10064000B395D9F73EF490958095709561957F4F5D
:100650008F4F9F4F0895990F0008550FAA0BE0E8A0
:10066000FEEF16161706E807F907C0F01216130674
:10067000E407F50798F0621B730B840B950B39F4B4
:100680000A2661F0232B242B252B21F408950A261A
:1006900009F4A140A6958FEF811D811D089597F95A
:1006A0009F6780E870E060E008959FEF80EC089518
:1006B00000240A9416161706180609060895002441
:1006C0000A9412161306140605060895092E0394BB
:1006D000000C11F4882352F0BB0F40F4BF2B11F42F
:1006E00060FF04C06F5F7F4F8F4F9F4F089557FD8E
:1006F0009058440F551F59F05F3F71F04795880F90
:1007000097FB991F61F09F3F79F087950895121626
:1007100013061406551FF2CF4695F1DF08C01616D2
:1007200017061806991FF1CF869571056105089483
:100730000895E894BB2766277727CB0197F908959A
:100740000E942B0308F48FEF08950E94B8030C94C5
:1007500066030E94580338F00E945F0320F095233F
:1007600011F00C944F030C94550311240C949A032C
:100770000E94770370F3959FC1F3950F50E0551FCA
:10078000629FF001729FBB27F00DB11D639FAA27E6
:10079000F00DB11DAA1F649F6627B00DA11D661F35
:1007A000829F2227B00DA11D621F739FB00DA11D56
:1007B000621F839FA00D611D221F749F3327A00D10
:1007C000611D231F849F600D211D822F762F6A2FAC
:1007D00011249F5750409AF0F1F088234AF0EE0F11
:1007E000FF1FBB1F661F771F881F91505040A9F73E
:1007F0009E3F510580F00C944F030C949A035F3F89
:10080000E4F3983ED4F3869577956795B795F79579
:10081000E7959F5FC1F7FE2B880F911D96958795F1
:0808200097F90895F894FFCF49
:1008280001DB01CF01010000000000000200000010
:100838000067000000000004000400040004000435
:100848000004000400040003000100030001000389
:100858000001000300010003000100030001000380
:10086800000100030001000400040004000400A4C7
:10087800D0A4437BD49243A4D0824300000000A4B8
:10088800D0A4437BD49243A4D0824300000000A4A8
:10089800D0824300000000A4D0824300000000A4DE
:1008A800D0824300000000A4D08243000000007BF7
:1008B800D49243000000007BD49243000000007BE8
:1008C800D49243000000007BD4924300000000A4AF
:1008D800D0A4437BD49243A4D08243000000004BB1
:0408E800000200000A
:00000001FF
